{
  "contractName": "singer_vote",
  "abi": [
    {
      "constant": true,
      "inputs": [],
      "name": "manager",
      "outputs": [
        {
          "name": "",
          "type": "address"
        }
      ],
      "payable": false,
      "stateMutability": "view",
      "type": "function"
    },
    {
      "constant": true,
      "inputs": [
        {
          "name": "",
          "type": "uint256"
        }
      ],
      "name": "voted_number",
      "outputs": [
        {
          "name": "",
          "type": "uint256"
        }
      ],
      "payable": false,
      "stateMutability": "view",
      "type": "function"
    },
    {
      "constant": true,
      "inputs": [
        {
          "name": "",
          "type": "address"
        },
        {
          "name": "",
          "type": "uint256"
        }
      ],
      "name": "voter_ListSinger",
      "outputs": [
        {
          "name": "",
          "type": "uint256"
        }
      ],
      "payable": false,
      "stateMutability": "view",
      "type": "function"
    },
    {
      "constant": true,
      "inputs": [
        {
          "name": "",
          "type": "uint256"
        }
      ],
      "name": "singer_votedNumber",
      "outputs": [
        {
          "name": "",
          "type": "uint256"
        }
      ],
      "payable": false,
      "stateMutability": "view",
      "type": "function"
    },
    {
      "constant": true,
      "inputs": [
        {
          "name": "",
          "type": "uint256"
        }
      ],
      "name": "id_top3",
      "outputs": [
        {
          "name": "",
          "type": "uint256"
        }
      ],
      "payable": false,
      "stateMutability": "view",
      "type": "function"
    },
    {
      "constant": true,
      "inputs": [
        {
          "name": "",
          "type": "uint256"
        }
      ],
      "name": "id_singer",
      "outputs": [
        {
          "name": "",
          "type": "uint256"
        }
      ],
      "payable": false,
      "stateMutability": "view",
      "type": "function"
    },
    {
      "inputs": [],
      "payable": false,
      "stateMutability": "nonpayable",
      "type": "constructor"
    },
    {
      "constant": false,
      "inputs": [],
      "name": "get_voted_number",
      "outputs": [
        {
          "name": "",
          "type": "uint256[]"
        }
      ],
      "payable": false,
      "stateMutability": "nonpayable",
      "type": "function"
    },
    {
      "constant": false,
      "inputs": [],
      "name": "get_id_top3",
      "outputs": [
        {
          "name": "",
          "type": "uint256[]"
        }
      ],
      "payable": false,
      "stateMutability": "nonpayable",
      "type": "function"
    },
    {
      "constant": false,
      "inputs": [],
      "name": "get_id_singer",
      "outputs": [
        {
          "name": "",
          "type": "uint256[]"
        }
      ],
      "payable": false,
      "stateMutability": "nonpayable",
      "type": "function"
    },
    {
      "constant": false,
      "inputs": [],
      "name": "add_singer",
      "outputs": [],
      "payable": false,
      "stateMutability": "nonpayable",
      "type": "function"
    },
    {
      "constant": true,
      "inputs": [],
      "name": "get_list_singer_of_voter",
      "outputs": [
        {
          "name": "",
          "type": "uint256[]"
        }
      ],
      "payable": false,
      "stateMutability": "view",
      "type": "function"
    },
    {
      "constant": true,
      "inputs": [
        {
          "name": "id",
          "type": "uint256"
        }
      ],
      "name": "check_voter_voted_1_singer",
      "outputs": [
        {
          "name": "",
          "type": "bool"
        }
      ],
      "payable": false,
      "stateMutability": "view",
      "type": "function"
    },
    {
      "constant": true,
      "inputs": [],
      "name": "get_number_singer_of_voter",
      "outputs": [
        {
          "name": "",
          "type": "uint256"
        }
      ],
      "payable": false,
      "stateMutability": "view",
      "type": "function"
    },
    {
      "constant": true,
      "inputs": [],
      "name": "check_number_singer_of_voter",
      "outputs": [
        {
          "name": "",
          "type": "bool"
        }
      ],
      "payable": false,
      "stateMutability": "view",
      "type": "function"
    },
    {
      "constant": false,
      "inputs": [],
      "name": "create_ID_top3",
      "outputs": [],
      "payable": false,
      "stateMutability": "nonpayable",
      "type": "function"
    },
    {
      "constant": true,
      "inputs": [
        {
          "name": "Array",
          "type": "uint256[]"
        }
      ],
      "name": "coppy_Array",
      "outputs": [
        {
          "name": "",
          "type": "uint256[]"
        }
      ],
      "payable": false,
      "stateMutability": "pure",
      "type": "function"
    },
    {
      "constant": false,
      "inputs": [
        {
          "name": "id",
          "type": "uint256"
        }
      ],
      "name": "vote",
      "outputs": [],
      "payable": false,
      "stateMutability": "nonpayable",
      "type": "function"
    },
    {
      "constant": true,
      "inputs": [
        {
          "name": "id",
          "type": "uint256"
        }
      ],
      "name": "get_index_singer_in_voter_ListSinger",
      "outputs": [
        {
          "name": "",
          "type": "uint256"
        }
      ],
      "payable": false,
      "stateMutability": "view",
      "type": "function"
    },
    {
      "constant": false,
      "inputs": [
        {
          "name": "id",
          "type": "uint256"
        }
      ],
      "name": "remove_1_vote",
      "outputs": [],
      "payable": false,
      "stateMutability": "nonpayable",
      "type": "function"
    }
  ],
  "bytecode": "0x608060405234801561001057600080fd5b50336000806101000a81548173ffffffffffffffffffffffffffffffffffffffff021916908373ffffffffffffffffffffffffffffffffffffffff1602179055506116a5806100606000396000f3fe608060405260043610610101576000357c0100000000000000000000000000000000000000000000000000000000900480630121b93f146101065780630fe90ca1146101415780632faf02b51461025b57806330112c8b146102aa578063481c6a75146102fd5780634adb1a5b146103545780635c6860291461037f57806363e03773146103eb5780637d1e883b1461040257806380cb3e4214610451578063819e7b28146104bd5780638228e64e14610529578063a7b5de9214610558578063c8702b1814610593578063d16a6255146105aa578063d35c051314610619578063f389246714610685578063f79b4425146106d4578063fd03a17c14610723575b600080fd5b34801561011257600080fd5b5061013f6004803603602081101561012957600080fd5b8101908080359060200190929190505050610772565b005b34801561014d57600080fd5b506102046004803603602081101561016457600080fd5b810190808035906020019064010000000081111561018157600080fd5b82018360208201111561019357600080fd5b803590602001918460208302840111640100000000831117156101b557600080fd5b919080806020026020016040519081016040528093929190818152602001838360200280828437600081840152601f19601f82011690508083019250505050505050919291929050505061096f565b6040518080602001828103825283818151815260200191508051906020019060200280838360005b8381101561024757808201518184015260208101905061022c565b505050509050019250505060405180910390f35b34801561026757600080fd5b506102946004803603602081101561027e57600080fd5b81019080803590602001909291905050506109ff565b6040518082815260200191505060405180910390f35b3480156102b657600080fd5b506102e3600480360360208110156102cd57600080fd5b8101908080359060200190929190505050610b4c565b604051808215151515815260200191505060405180910390f35b34801561030957600080fd5b50610312610bac565b604051808273ffffffffffffffffffffffffffffffffffffffff1673ffffffffffffffffffffffffffffffffffffffff16815260200191505060405180910390f35b34801561036057600080fd5b50610369610bd1565b6040518082815260200191505060405180910390f35b34801561038b57600080fd5b50610394610c1b565b6040518080602001828103825283818151815260200191508051906020019060200280838360005b838110156103d75780820151818401526020810190506103bc565b505050509050019250505060405180910390f35b3480156103f757600080fd5b50610400610cce565b005b34801561040e57600080fd5b5061043b6004803603602081101561042557600080fd5b81019080803590602001909291905050506110c2565b6040518082815260200191505060405180910390f35b34801561045d57600080fd5b506104666110e5565b6040518080602001828103825283818151815260200191508051906020019060200280838360005b838110156104a957808201518184015260208101905061048e565b505050509050019250505060405180910390f35b3480156104c957600080fd5b506104d261117a565b6040518080602001828103825283818151815260200191508051906020019060200280838360005b838110156105155780820151818401526020810190506104fa565b505050509050019250505060405180910390f35b34801561053557600080fd5b5061053e61122d565b604051808215151515815260200191505060405180910390f35b34801561056457600080fd5b506105916004803603602081101561057b57600080fd5b810190808035906020019092919050505061123f565b005b34801561059f57600080fd5b506105a86112e3565b005b3480156105b657600080fd5b50610603600480360360408110156105cd57600080fd5b81019080803573ffffffffffffffffffffffffffffffffffffffff16906020019092919080359060200190929190505050611424565b6040518082815260200191505060405180910390f35b34801561062557600080fd5b5061062e611454565b6040518080602001828103825283818151815260200191508051906020019060200280838360005b83811015610671578082015181840152602081019050610656565b505050509050019250505060405180910390f35b34801561069157600080fd5b506106be600480360360208110156106a857600080fd5b8101908080359060200190929190505050611507565b6040518082815260200191505060405180910390f35b3480156106e057600080fd5b5061070d600480360360208110156106f757600080fd5b810190808035906020019092919050505061151f565b6040518082815260200191505060405180910390f35b34801561072f57600080fd5b5061075c6004803603602081101561074657600080fd5b8101908080359060200190929190505050611542565b6040518082815260200191505060405180910390f35b61077b81610b4c565b1515610815576040517f08c379a00000000000000000000000000000000000000000000000000000000081526004018080602001828103825260238152602001807f566f74657220616c726561647920766f74656420666f7220746869732073696e81526020017f676572000000000000000000000000000000000000000000000000000000000081525060400191505060405180910390fd5b61081d61122d565b15156108b7576040517f08c379a00000000000000000000000000000000000000000000000000000000081526004018080602001828103825260218152602001807f566f74657220616c726561647920766f74656420666f7220352073696e67657281526020017f730000000000000000000000000000000000000000000000000000000000000081525060400191505060405180910390fd5b60016000828152602001908152602001600020600081548092919060010191905055506004818154811015156108e957fe5b9060005260206000200160008154809291906001019190505550600260003373ffffffffffffffffffffffffffffffffffffffff1673ffffffffffffffffffffffffffffffffffffffff16815260200190815260200160002081908060018154018082558091505090600182039060005260206000200160009091929091909150555050565b60608082516040519080825280602002602001820160405280156109a25781602001602082028038833980820191505090505b50905060008090505b83518110156109f55783818151811015156109c257fe5b9060200190602002015182828151811015156109da57fe5b906020019060200201818152505080806001019150506109ab565b5080915050919050565b60006060600260003373ffffffffffffffffffffffffffffffffffffffff1673ffffffffffffffffffffffffffffffffffffffff168152602001908152602001600020805480602002602001604051908101604052809291908181526020018280548015610a8c57602002820191906000526020600020905b815481526020019060010190808311610a78575b5050505050905060008090505b8151811015610ad857838282815181101515610ab157fe5b906020019060200201511415610acb578092505050610b47565b8080600101915050610a99565b506040517f08c379a00000000000000000000000000000000000000000000000000000000081526004018080602001828103825260208152602001807f53696e676572206e6f7420666f756e6420696e20766f7465722773206c69737481525060200191505060405180910390fd5b919050565b60006060610b586110e5565b905060008090505b8151811015610ba057838282815181101515610b7857fe5b906020019060200201511415610b9357600092505050610ba7565b8080600101915050610b60565b5060019150505b919050565b6000809054906101000a900473ffffffffffffffffffffffffffffffffffffffff1681565b6000600260003373ffffffffffffffffffffffffffffffffffffffff1673ffffffffffffffffffffffffffffffffffffffff16815260200190815260200160002080549050905090565b60606000809054906101000a900473ffffffffffffffffffffffffffffffffffffffff1673ffffffffffffffffffffffffffffffffffffffff163373ffffffffffffffffffffffffffffffffffffffff16141515610c7857600080fd5b6004805480602002602001604051908101604052809291908181526020018280548015610cc457602002820191906000526020600020905b815481526020019060010190808311610cb0575b5050505050905090565b6000809054906101000a900473ffffffffffffffffffffffffffffffffffffffff1673ffffffffffffffffffffffffffffffffffffffff163373ffffffffffffffffffffffffffffffffffffffff16141515610db8576040517f08c379a00000000000000000000000000000000000000000000000000000000081526004018080602001828103825260228152602001807f4f6e6c79206d616e616765722063616e2063726561746520746f702033206c6981526020017f737400000000000000000000000000000000000000000000000000000000000081525060400191505060405180910390fd5b6000604051908082528060200260200182016040528015610de85781602001602082028038833980820191505090505b5060059080519060200190610dfe929190611607565b506060610e5a6003805480602002602001604051908101604052809291908181526020018280548015610e5057602002820191906000526020600020905b815481526020019060010190808311610e3c575b505050505061096f565b90506060610eb76004805480602002602001604051908101604052809291908181526020018280548015610ead57602002820191906000526020600020905b815481526020019060010190808311610e99575b505050505061096f565b905060008090505b81518110156110055760008090505b8251811015610ff7578281815181101515610ee557fe5b906020019060200201518383815181101515610efd57fe5b906020019060200201511115610fea5760008383815181101515610f1d57fe5b9060200190602002015190508382815181101515610f3757fe5b906020019060200201518484815181101515610f4f57fe5b9060200190602002018181525050808483815181101515610f6c57fe5b906020019060200201818152505060008584815181101515610f8a57fe5b9060200190602002015190508583815181101515610fa457fe5b906020019060200201518685815181101515610fbc57fe5b9060200190602002018181525050808684815181101515610fd957fe5b906020019060200201818152505050505b8080600101915050610ece565b508080600101915050610ebf565b50600080600090505b83518110156110bb576005848281518110151561102757fe5b906020019060200201519080600181540180825580915050906001820390600052602060002001600090919290919091505550828181518110151561106857fe5b90602001906020020151836001830181518110151561108357fe5b90602001906020020151101561109c5781806001019250505b60038214156110ae57505050506110c0565b808060010191505061100e565b505050505b565b6004818154811015156110d157fe5b906000526020600020016000915090505481565b6060600260003373ffffffffffffffffffffffffffffffffffffffff1673ffffffffffffffffffffffffffffffffffffffff16815260200190815260200160002080548060200260200160405190810160405280929190818152602001828054801561117057602002820191906000526020600020905b81548152602001906001019080831161115c575b5050505050905090565b60606000809054906101000a900473ffffffffffffffffffffffffffffffffffffffff1673ffffffffffffffffffffffffffffffffffffffff163373ffffffffffffffffffffffffffffffffffffffff161415156111d757600080fd5b600380548060200260200160405190810160405280929190818152602001828054801561122357602002820191906000526020600020905b81548152602001906001019080831161120f575b5050505050905090565b60006005611239610bd1565b10905090565b600061124a826109ff565b905061125581611565565b600260003373ffffffffffffffffffffffffffffffffffffffff1673ffffffffffffffffffffffffffffffffffffffff168152602001908152602001600020805480151561129f57fe5b600190038181906000526020600020016000905590556004828154811015156112c457fe5b9060005260206000200160008154809291906001900391905055505050565b6000809054906101000a900473ffffffffffffffffffffffffffffffffffffffff1673ffffffffffffffffffffffffffffffffffffffff163373ffffffffffffffffffffffffffffffffffffffff161415156113a7576040517f08c379a000000000000000000000000000000000000000000000000000000000815260040180806020018281038252601b8152602001807f4f6e6c79206d616e616765722063616e206164642073696e676572000000000081525060200191505060405180910390fd5b600060016000600380549050815260200190815260200160002081905550600380805490509080600181540180825580915050906001820390600052602060002001600090919290919091505550600460009080600181540180825580915050906001820390600052602060002001600090919290919091505550565b60026020528160005260406000208181548110151561143f57fe5b90600052602060002001600091509150505481565b60606000809054906101000a900473ffffffffffffffffffffffffffffffffffffffff1673ffffffffffffffffffffffffffffffffffffffff163373ffffffffffffffffffffffffffffffffffffffff161415156114b157600080fd5b60058054806020026020016040519081016040528092919081815260200182805480156114fd57602002820191906000526020600020905b8154815260200190600101908083116114e9575b5050505050905090565b60016020528060005260406000206000915090505481565b60058181548110151561152e57fe5b906000526020600020016000915090505481565b60038181548110151561155157fe5b906000526020600020016000915090505481565b6000600260003373ffffffffffffffffffffffffffffffffffffffff1673ffffffffffffffffffffffffffffffffffffffff168152602001908152602001600020905060008290505b60018280549050038110156116025781600182018154811015156115ce57fe5b906000526020600020015482828154811015156115e757fe5b906000526020600020018190555080806001019150506115ae565b505050565b828054828255906000526020600020908101928215611643579160200282015b82811115611642578251825591602001919060010190611627565b5b5090506116509190611654565b5090565b61167691905b8082111561167257600081600090555060010161165a565b5090565b9056fea165627a7a7230582025610c14a05ef48cc60f23dd2dff892505224dcd1f8b21dced4c31957b4fb1de0029",
  "source": "pragma solidity >=0.4.22 <0.9.0;\n\ncontract singer_vote {\n    address public manager;\n\n    mapping(uint => uint) public singer_votedNumber;\n    mapping(address => uint[]) public voter_ListSinger;\n    uint[] public id_singer;\n    uint[] public voted_number;\n    uint[] public id_top3;\n    constructor() public{\n        manager = msg.sender;\n    }\n    function get_voted_number() public returns (uint[] memory){\n        require (msg.sender == manager);\n        return voted_number;\n    }\n    function get_id_top3() public returns (uint[] memory){\n        require (msg.sender == manager);\n        return id_top3;\n    }\n    function get_id_singer() public returns (uint[] memory){\n        require (msg.sender == manager);\n        return id_singer;\n    }\n    function add_singer() public {\n        require(msg.sender == manager, \"Only manager can add singer\");\n        singer_votedNumber[id_singer.length] = 0; \n        id_singer.push(id_singer.length);\n        voted_number.push(0);\n    }\n\n    function get_list_singer_of_voter() public view returns(uint[] memory) {\n        return voter_ListSinger[msg.sender];\n    }\n\n    function check_voter_voted_1_singer(uint id) public view returns(bool) {\n        uint[] memory list_singer = get_list_singer_of_voter();\n        for (uint i = 0; i < list_singer.length; i++){\n            if (list_singer[i] == id){\n                return false;\n            }\n        }\n        return true;\n    }\n\n    function get_number_singer_of_voter() public view returns(uint) {\n        return voter_ListSinger[msg.sender].length;\n    }\n\n    function check_number_singer_of_voter() public view returns(bool) {\n        return get_number_singer_of_voter() < 5;\n    }\n\n    function create_ID_top3() public {\n        require(msg.sender == manager, \"Only manager can create top 3 list\");\n        id_top3 = new uint[](0);\n        uint[] memory copy_id_singer = coppy_Array(id_singer);\n        uint[] memory copy_voted_number = coppy_Array(voted_number);\n        for (uint i = 0; i < copy_voted_number.length; i++){\n            for (uint j = 0; j < copy_voted_number.length; j++){\n                if (copy_voted_number[i] > copy_voted_number[j]){\n                    uint vote_temp = copy_voted_number[i];\n                    copy_voted_number[i] = copy_voted_number[j];\n                    copy_voted_number[j] = vote_temp;\n                    uint id_temp = copy_id_singer[i];\n                    copy_id_singer[i] = copy_id_singer[j];\n                    copy_id_singer[j] = id_temp;\n                }\n            }\n        }\n        uint count;\n        for (uint i = 0; i < copy_id_singer.length; i++){\n            id_top3.push(copy_id_singer[i]);\n            if (copy_voted_number[i + 1] < copy_voted_number[i]){\n                count++;\n            }\n            if (count == 3){\n                return;\n            }\n        }\n    }\n\n    function coppy_Array(uint[] memory Array) public pure returns(uint[] memory) {\n        uint[] memory coppyArray = new uint[](Array.length);\n        for (uint i = 0; i < Array.length; i++){\n            coppyArray[i] = Array[i];\n        }\n        return coppyArray;\n    }\n\n    function vote(uint id) public {\n        require(check_voter_voted_1_singer(id), \"Voter already voted for this singer\");\n        require(check_number_singer_of_voter(), \"Voter already voted for 5 singers\");\n        singer_votedNumber[id]++;\n        voted_number[id]++;\n        voter_ListSinger[msg.sender].push(id);\n    }\n\n    function get_index_singer_in_voter_ListSinger(uint id) public view returns(uint) {\n        uint[] memory voterSingers = voter_ListSinger[msg.sender];\n        for (uint i = 0; i < voterSingers.length; i++){\n            if (voterSingers[i] == id){\n                return i;\n            }\n        }\n        revert(\"Singer not found in voter's list\");\n    }\n\n    function move_to_end_Array(uint index) private {\n        uint[] storage voterSingers = voter_ListSinger[msg.sender];\n        for (uint i = index; i < voterSingers.length - 1; i++){\n            voterSingers[i] = voterSingers[i + 1];\n        }\n    }\n\n    function remove_1_vote(uint id) public {\n        uint index = get_index_singer_in_voter_ListSinger(id);\n        move_to_end_Array(index);\n        voter_ListSinger[msg.sender].pop();\n        voted_number[id]--;\n    }\n}\n",
  "sourcePath": "C:\\Users\\user\\Downloads\\blockchain_1\\contracts\\singer_vote.sol",
  "compiler": {
    "name": "solc",
    "version": "0.5.1+commit.c8a2cb62.Emscripten.clang"
  },
  "schemaVersion": "3.4.16",
  "updatedAt": "2024-04-23T04:05:23.778Z",
  "networkType": "ethereum",
  "devdoc": {
    "methods": {}
  },
  "userdoc": {
    "methods": {}
  }
}