{
  "contractName": "SingerVote1",
  "abi": [
    {
      "constant": true,
      "inputs": [],
      "name": "manager",
      "outputs": [
        {
          "name": "",
          "type": "address"
        }
      ],
      "payable": false,
      "stateMutability": "view",
      "type": "function"
    },
    {
      "constant": true,
      "inputs": [
        {
          "name": "",
          "type": "uint256"
        }
      ],
      "name": "voted_number",
      "outputs": [
        {
          "name": "",
          "type": "uint256"
        }
      ],
      "payable": false,
      "stateMutability": "view",
      "type": "function"
    },
    {
      "constant": true,
      "inputs": [
        {
          "name": "",
          "type": "address"
        },
        {
          "name": "",
          "type": "uint256"
        }
      ],
      "name": "voter_ListSinger",
      "outputs": [
        {
          "name": "",
          "type": "uint256"
        }
      ],
      "payable": false,
      "stateMutability": "view",
      "type": "function"
    },
    {
      "constant": true,
      "inputs": [
        {
          "name": "",
          "type": "uint256"
        }
      ],
      "name": "singer_votedNumber",
      "outputs": [
        {
          "name": "",
          "type": "uint256"
        }
      ],
      "payable": false,
      "stateMutability": "view",
      "type": "function"
    },
    {
      "constant": true,
      "inputs": [
        {
          "name": "",
          "type": "uint256"
        }
      ],
      "name": "id_top3",
      "outputs": [
        {
          "name": "",
          "type": "uint256"
        }
      ],
      "payable": false,
      "stateMutability": "view",
      "type": "function"
    },
    {
      "constant": true,
      "inputs": [
        {
          "name": "",
          "type": "uint256"
        }
      ],
      "name": "id_singer",
      "outputs": [
        {
          "name": "",
          "type": "uint256"
        }
      ],
      "payable": false,
      "stateMutability": "view",
      "type": "function"
    },
    {
      "inputs": [],
      "payable": false,
      "stateMutability": "nonpayable",
      "type": "constructor"
    },
    {
      "constant": false,
      "inputs": [],
      "name": "add_singer",
      "outputs": [],
      "payable": false,
      "stateMutability": "nonpayable",
      "type": "function"
    },
    {
      "constant": true,
      "inputs": [
        {
          "name": "voter",
          "type": "address"
        }
      ],
      "name": "get_list_singer_of_voter",
      "outputs": [
        {
          "name": "",
          "type": "uint256[]"
        }
      ],
      "payable": false,
      "stateMutability": "view",
      "type": "function"
    },
    {
      "constant": true,
      "inputs": [
        {
          "name": "id",
          "type": "uint256"
        },
        {
          "name": "voter",
          "type": "address"
        }
      ],
      "name": "check_voter_voted_1_singer",
      "outputs": [
        {
          "name": "",
          "type": "bool"
        }
      ],
      "payable": false,
      "stateMutability": "view",
      "type": "function"
    },
    {
      "constant": true,
      "inputs": [
        {
          "name": "voter",
          "type": "address"
        }
      ],
      "name": "get_number_singer_of_voter",
      "outputs": [
        {
          "name": "",
          "type": "uint256"
        }
      ],
      "payable": false,
      "stateMutability": "view",
      "type": "function"
    },
    {
      "constant": true,
      "inputs": [
        {
          "name": "voter",
          "type": "address"
        }
      ],
      "name": "check_number_singer_of_voter",
      "outputs": [
        {
          "name": "",
          "type": "bool"
        }
      ],
      "payable": false,
      "stateMutability": "view",
      "type": "function"
    },
    {
      "constant": false,
      "inputs": [],
      "name": "create_ID_top3",
      "outputs": [],
      "payable": false,
      "stateMutability": "nonpayable",
      "type": "function"
    },
    {
      "constant": true,
      "inputs": [
        {
          "name": "Array",
          "type": "uint256[]"
        }
      ],
      "name": "coppy_Array",
      "outputs": [
        {
          "name": "",
          "type": "uint256[]"
        }
      ],
      "payable": false,
      "stateMutability": "pure",
      "type": "function"
    },
    {
      "constant": false,
      "inputs": [
        {
          "name": "id",
          "type": "uint256"
        },
        {
          "name": "voter",
          "type": "address"
        }
      ],
      "name": "vote",
      "outputs": [],
      "payable": false,
      "stateMutability": "nonpayable",
      "type": "function"
    },
    {
      "constant": true,
      "inputs": [
        {
          "name": "id",
          "type": "uint256"
        }
      ],
      "name": "get_index_singer_in_voter_ListSinger",
      "outputs": [
        {
          "name": "",
          "type": "uint256"
        }
      ],
      "payable": false,
      "stateMutability": "view",
      "type": "function"
    },
    {
      "constant": false,
      "inputs": [
        {
          "name": "id",
          "type": "uint256"
        }
      ],
      "name": "remove_1_vote",
      "outputs": [],
      "payable": false,
      "stateMutability": "nonpayable",
      "type": "function"
    }
  ],
  "bytecode": "0x608060405234801561001057600080fd5b50336000806101000a81548173ffffffffffffffffffffffffffffffffffffffff021916908373ffffffffffffffffffffffffffffffffffffffff160217905550611362806100606000396000f3fe6080604052600436106100e0576000357c01000000000000000000000000000000000000000000000000000000009004806302d947ef146100e557806307e5141a146101405780630fe90ca1146101a95780632faf02b5146102c3578063481c6a7514610312578063592225d91461036957806363e037731461040f5780637d1e883b14610426578063a7b5de9214610475578063c786831b146104b0578063c8702b1814610523578063d16a62551461053a578063e0dd3283146105a9578063f38924671461060e578063f79b44251461065d578063fd03a17c146106ac575b600080fd5b3480156100f157600080fd5b5061013e6004803603604081101561010857600080fd5b8101908080359060200190929190803573ffffffffffffffffffffffffffffffffffffffff1690602001909291905050506106fb565b005b34801561014c57600080fd5b5061018f6004803603602081101561016357600080fd5b81019080803573ffffffffffffffffffffffffffffffffffffffff1690602001909291905050506108fb565b604051808215151515815260200191505060405180910390f35b3480156101b557600080fd5b5061026c600480360360208110156101cc57600080fd5b81019080803590602001906401000000008111156101e957600080fd5b8201836020820111156101fb57600080fd5b8035906020019184602083028401116401000000008311171561021d57600080fd5b919080806020026020016040519081016040528093929190818152602001838360200280828437600081840152601f19601f820116905080830192505050505050509192919290505050610910565b6040518080602001828103825283818151815260200191508051906020019060200280838360005b838110156102af578082015181840152602081019050610294565b505050509050019250505060405180910390f35b3480156102cf57600080fd5b506102fc600480360360208110156102e657600080fd5b81019080803590602001909291905050506109a0565b6040518082815260200191505060405180910390f35b34801561031e57600080fd5b50610327610aed565b604051808273ffffffffffffffffffffffffffffffffffffffff1673ffffffffffffffffffffffffffffffffffffffff16815260200191505060405180910390f35b34801561037557600080fd5b506103b86004803603602081101561038c57600080fd5b81019080803573ffffffffffffffffffffffffffffffffffffffff169060200190929190505050610b12565b6040518080602001828103825283818151815260200191508051906020019060200280838360005b838110156103fb5780820151818401526020810190506103e0565b505050509050019250505060405180910390f35b34801561041b57600080fd5b50610424610ba9565b005b34801561043257600080fd5b5061045f6004803603602081101561044957600080fd5b8101908080359060200190929190505050610f56565b6040518082815260200191505060405180910390f35b34801561048157600080fd5b506104ae6004803603602081101561049857600080fd5b8101908080359060200190929190505050610f79565b005b3480156104bc57600080fd5b50610509600480360360408110156104d357600080fd5b8101908080359060200190929190803573ffffffffffffffffffffffffffffffffffffffff169060200190929190505050611017565b604051808215151515815260200191505060405180910390f35b34801561052f57600080fd5b50610538611079565b005b34801561054657600080fd5b506105936004803603604081101561055d57600080fd5b81019080803573ffffffffffffffffffffffffffffffffffffffff169060200190929190803590602001909291905050506111ba565b6040518082815260200191505060405180910390f35b3480156105b557600080fd5b506105f8600480360360208110156105cc57600080fd5b81019080803573ffffffffffffffffffffffffffffffffffffffff1690602001909291905050506111ea565b6040518082815260200191505060405180910390f35b34801561061a57600080fd5b506106476004803603602081101561063157600080fd5b8101908080359060200190929190505050611236565b6040518082815260200191505060405180910390f35b34801561066957600080fd5b506106966004803603602081101561068057600080fd5b810190808035906020019092919050505061124e565b6040518082815260200191505060405180910390f35b3480156106b857600080fd5b506106e5600480360360208110156106cf57600080fd5b8101908080359060200190929190505050611271565b6040518082815260200191505060405180910390f35b6107058282611017565b151561079f576040517f08c379a00000000000000000000000000000000000000000000000000000000081526004018080602001828103825260238152602001807f566f74657220616c726561647920766f74656420666f7220746869732073696e81526020017f676572000000000000000000000000000000000000000000000000000000000081525060400191505060405180910390fd5b6107a8816108fb565b1515610842576040517f08c379a00000000000000000000000000000000000000000000000000000000081526004018080602001828103825260218152602001807f566f74657220616c726561647920766f74656420666f7220352073696e67657281526020017f730000000000000000000000000000000000000000000000000000000000000081525060400191505060405180910390fd5b600160008381526020019081526020016000206000815480929190600101919050555060048281548110151561087457fe5b9060005260206000200160008154809291906001019190505550600260008273ffffffffffffffffffffffffffffffffffffffff1673ffffffffffffffffffffffffffffffffffffffff1681526020019081526020016000208290806001815401808255809150509060018203906000526020600020016000909192909190915055505050565b60006005610908836111ea565b109050919050565b60608082516040519080825280602002602001820160405280156109435781602001602082028038833980820191505090505b50905060008090505b835181101561099657838181518110151561096357fe5b90602001906020020151828281518110151561097b57fe5b9060200190602002018181525050808060010191505061094c565b5080915050919050565b60006060600260003373ffffffffffffffffffffffffffffffffffffffff1673ffffffffffffffffffffffffffffffffffffffff168152602001908152602001600020805480602002602001604051908101604052809291908181526020018280548015610a2d57602002820191906000526020600020905b815481526020019060010190808311610a19575b5050505050905060008090505b8151811015610a7957838282815181101515610a5257fe5b906020019060200201511415610a6c578092505050610ae8565b8080600101915050610a3a565b506040517f08c379a00000000000000000000000000000000000000000000000000000000081526004018080602001828103825260208152602001807f53696e676572206e6f7420666f756e6420696e20766f7465722773206c69737481525060200191505060405180910390fd5b919050565b6000809054906101000a900473ffffffffffffffffffffffffffffffffffffffff1681565b6060600260008373ffffffffffffffffffffffffffffffffffffffff1673ffffffffffffffffffffffffffffffffffffffff168152602001908152602001600020805480602002602001604051908101604052809291908181526020018280548015610b9d57602002820191906000526020600020905b815481526020019060010190808311610b89575b50505050509050919050565b6000809054906101000a900473ffffffffffffffffffffffffffffffffffffffff1673ffffffffffffffffffffffffffffffffffffffff163373ffffffffffffffffffffffffffffffffffffffff16141515610c93576040517f08c379a00000000000000000000000000000000000000000000000000000000081526004018080602001828103825260228152602001807f4f6e6c79206d616e616765722063616e2063726561746520746f702033206c6981526020017f737400000000000000000000000000000000000000000000000000000000000081525060400191505060405180910390fd5b6060610cee6003805480602002602001604051908101604052809291908181526020018280548015610ce457602002820191906000526020600020905b815481526020019060010190808311610cd0575b5050505050610910565b90506060610d4b6004805480602002602001604051908101604052809291908181526020018280548015610d4157602002820191906000526020600020905b815481526020019060010190808311610d2d575b5050505050610910565b905060008090505b8151811015610e995760008090505b8251811015610e8b578281815181101515610d7957fe5b906020019060200201518383815181101515610d9157fe5b906020019060200201511115610e7e5760008383815181101515610db157fe5b9060200190602002015190508382815181101515610dcb57fe5b906020019060200201518484815181101515610de357fe5b9060200190602002018181525050808483815181101515610e0057fe5b906020019060200201818152505060008584815181101515610e1e57fe5b9060200190602002015190508583815181101515610e3857fe5b906020019060200201518685815181101515610e5057fe5b9060200190602002018181525050808684815181101515610e6d57fe5b906020019060200201818152505050505b8080600101915050610d62565b508080600101915050610d53565b50600080600090505b8351811015610f4f5760058482815181101515610ebb57fe5b9060200190602002015190806001815401808255809150509060018203906000526020600020016000909192909190915055508281815181101515610efc57fe5b906020019060200201518360018301815181101515610f1757fe5b906020019060200201511015610f305781806001019250505b6003821415610f425750505050610f54565b8080600101915050610ea2565b505050505b565b600481815481101515610f6557fe5b906000526020600020016000915090505481565b6000610f84826109a0565b9050610f8f81611294565b600260003373ffffffffffffffffffffffffffffffffffffffff1673ffffffffffffffffffffffffffffffffffffffff1681526020019081526020016000208054801515610fd957fe5b600190038181906000526020600020016000905590556001600083815260200190815260200160002060008154809291906001900391905055505050565b6000606061102483610b12565b905060008090505b815181101561106c5784828281518110151561104457fe5b90602001906020020151141561105f57600092505050611073565b808060010191505061102c565b5060019150505b92915050565b6000809054906101000a900473ffffffffffffffffffffffffffffffffffffffff1673ffffffffffffffffffffffffffffffffffffffff163373ffffffffffffffffffffffffffffffffffffffff1614151561113d576040517f08c379a000000000000000000000000000000000000000000000000000000000815260040180806020018281038252601b8152602001807f4f6e6c79206d616e616765722063616e206164642073696e676572000000000081525060200191505060405180910390fd5b600060016000600380549050815260200190815260200160002081905550600380805490509080600181540180825580915050906001820390600052602060002001600090919290919091505550600460009080600181540180825580915050906001820390600052602060002001600090919290919091505550565b6002602052816000526040600020818154811015156111d557fe5b90600052602060002001600091509150505481565b6000600260008373ffffffffffffffffffffffffffffffffffffffff1673ffffffffffffffffffffffffffffffffffffffff168152602001908152602001600020805490509050919050565b60016020528060005260406000206000915090505481565b60058181548110151561125d57fe5b906000526020600020016000915090505481565b60038181548110151561128057fe5b906000526020600020016000915090505481565b6000600260003373ffffffffffffffffffffffffffffffffffffffff1673ffffffffffffffffffffffffffffffffffffffff168152602001908152602001600020905060008290505b60018280549050038110156113315781600182018154811015156112fd57fe5b9060005260206000200154828281548110151561131657fe5b906000526020600020018190555080806001019150506112dd565b50505056fea165627a7a723058202e85fca65330531b1bc5dcf803f1bc79ee3eb68979db34ef523392b836c30acf0029",
  "source": "pragma solidity >=0.4.22 <0.9.0;\n\ncontract SingerVote1 {\n    address public manager;\n\n    mapping(uint => uint) public singer_votedNumber;\n    mapping(address => uint[]) public voter_ListSinger;\n    uint[] public id_singer;\n    uint[] public voted_number;\n    uint[] public id_top3;\n\n    constructor() public{\n        manager = msg.sender;\n    }\n\n    function add_singer() public {\n        require(msg.sender == manager, \"Only manager can add singer\");\n        singer_votedNumber[id_singer.length] = 0; \n        id_singer.push(id_singer.length);\n        voted_number.push(0);\n    }\n\n    function get_list_singer_of_voter(address voter) public view returns(uint[] memory) {\n        return voter_ListSinger[voter];\n    }\n\n    function check_voter_voted_1_singer(uint id, address voter) public view returns(bool) {\n        uint[] memory list_singer = get_list_singer_of_voter(voter);\n        for (uint i = 0; i < list_singer.length; i++){\n            if (list_singer[i] == id){\n                return false;\n            }\n        }\n        return true;\n    }\n\n    function get_number_singer_of_voter(address voter) public view returns(uint) {\n        return voter_ListSinger[voter].length;\n    }\n\n    function check_number_singer_of_voter(address voter) public view returns(bool) {\n        return get_number_singer_of_voter(voter) < 5;\n    }\n\n    function create_ID_top3() public {\n        require(msg.sender == manager, \"Only manager can create top 3 list\");\n        uint[] memory copy_id_singer = coppy_Array(id_singer);\n        uint[] memory copy_voted_number = coppy_Array(voted_number);\n        for (uint i = 0; i < copy_voted_number.length; i++){\n            for (uint j = 0; j < copy_voted_number.length; j++){\n                if (copy_voted_number[i] > copy_voted_number[j]){\n                    uint vote_temp = copy_voted_number[i];\n                    copy_voted_number[i] = copy_voted_number[j];\n                    copy_voted_number[j] = vote_temp;\n                    uint id_temp = copy_id_singer[i];\n                    copy_id_singer[i] = copy_id_singer[j];\n                    copy_id_singer[j] = id_temp;\n                }\n            }\n        }\n        uint count;\n        for (uint i = 0; i < copy_id_singer.length; i++){\n            id_top3.push(copy_id_singer[i]);\n            if (copy_voted_number[i + 1] < copy_voted_number[i]){\n                count++;\n            }\n            if (count == 3){\n                return;\n            }\n        }\n    }\n\n    function coppy_Array(uint[] memory Array) public pure returns(uint[] memory) {\n        uint[] memory coppyArray = new uint[](Array.length);\n        for (uint i = 0; i < Array.length; i++){\n            coppyArray[i] = Array[i];\n        }\n        return coppyArray;\n    }\n\n    function vote(uint id, address voter) public {\n        require(check_voter_voted_1_singer(id, voter), \"Voter already voted for this singer\");\n        require(check_number_singer_of_voter(voter), \"Voter already voted for 5 singers\");\n        singer_votedNumber[id]++;\n        voted_number[id]++;\n        voter_ListSinger[voter].push(id);\n    }\n\n    function get_index_singer_in_voter_ListSinger(uint id) public view returns(uint) {\n        uint[] memory voterSingers = voter_ListSinger[msg.sender];\n        for (uint i = 0; i < voterSingers.length; i++){\n            if (voterSingers[i] == id){\n                return i;\n            }\n        }\n        revert(\"Singer not found in voter's list\");\n    }\n\n    function move_to_end_Array(uint index) private {\n        uint[] storage voterSingers = voter_ListSinger[msg.sender];\n        for (uint i = index; i < voterSingers.length - 1; i++){\n            voterSingers[i] = voterSingers[i + 1];\n        }\n    }\n\n    function remove_1_vote(uint id) public {\n        uint index = get_index_singer_in_voter_ListSinger(id);\n        move_to_end_Array(index);\n        voter_ListSinger[msg.sender].pop();\n        singer_votedNumber[id]--;\n    }\n}\n",
  "sourcePath": "C:\\Users\\user\\Downloads\\blockchain_1\\contracts\\singer_vote.sol",
  "compiler": {
    "name": "solc",
    "version": "0.5.1+commit.c8a2cb62.Emscripten.clang"
  },
  "schemaVersion": "3.4.16",
  "updatedAt": "2024-04-16T04:42:28.155Z",
  "devdoc": {
    "methods": {}
  },
  "userdoc": {
    "methods": {}
  }
}